{
    "contractName": "Greeter",
    "abi": [
        {
            "inputs": [
                {
                    "internalType": "string",
                    "name": "_greeting",
                    "type": "string"
                }
            ],
            "stateMutability": "nonpayable",
            "type": "constructor"
        },
        {
            "inputs": [],
            "name": "greet",
            "outputs": [
                {
                    "internalType": "string",
                    "name": "",
                    "type": "string"
                }
            ],
            "stateMutability": "view",
            "type": "function"
        },
        {
            "inputs": [
                {
                    "internalType": "string",
                    "name": "_greeting",
                    "type": "string"
                }
            ],
            "name": "setGreeting",
            "outputs": [],
            "stateMutability": "nonpayable",
            "type": "function"
        },
        {
            "inputs": [],
            "name": "variable",
            "outputs": [
                {
                    "internalType": "string",
                    "name": "",
                    "type": "string"
                }
            ],
            "stateMutability": "view",
            "type": "function"
        }
    ],
    "bytecode": "6080806040523461029c57610815803803809161001c82856102a0565b833981019060208183031261029c578051906001600160401b03821161029c570181601f8201121561029c578051906001600160401b0382116102885760405192610071601f8401601f1916602001856102a0565b8284526020838301011161029c57815f9260208093018386015e830101525f8060405161009f6060826102a0565b602181527f4465706c6f796564206120677265657465722077697468206772656574696e676020820152601d60f91b6040820152604051610120816101126101006020830195634b5c427760e01b87526040602485015260648401906102c3565b828103602319016044840152886102c3565b03601f1981018352826102a0565b51906a636f6e736f6c652e6c6f675afa5080516001600160401b038111610288575f54600181811c9116801561027e575b602082101461026a57601f8111610208575b50602091601f82116001146101aa579181925f9261019f575b50508160011b915f199060031b1c1916175f555b60405161052d90816102e88239f35b015190505f8061017c565b601f198216925f8052805f20915f5b8581106101f0575083600195106101d8575b505050811b015f55610190565b01515f1960f88460031b161c191690555f80806101cb565b919260206001819286850151815501940192016101b9565b5f80527f290decd9548b62a8d60345a988386fc84ba6bc95484008f6362f93160ef3e563601f830160051c81019160208410610260575b601f0160051c01905b8181106102555750610163565b5f8155600101610248565b909150819061023f565b634e487b7160e01b5f52602260045260245ffd5b90607f1690610151565b634e487b7160e01b5f52604160045260245ffd5b5f80fd5b601f909101601f19168101906001600160401b0382119082101761028857604052565b805180835260209291819084018484015e5f828201840152601f01601f191601019056fe60806040526004361015610011575f80fd5b5f3560e01c8063a41368621461013b578063b6854a21146100715763cfae32171461003a575f80fd5b3461006d575f36600319011261006d57610069610055610412565b6040519182916020835260208301906104b3565b0390f35b5f80fd5b3461006d575f36600319011261006d576040515f600154610091816103da565b808452906001811690811561011757506001146100b9575b61006983610055818503826103b8565b60015f9081527fb10e2d527612073b26eecdfd717e6a320cf44b4afac2b0732d9fcbe2b7fa0cf6939250905b8082106100fd575090915081016020016100556100a9565b9192600181602092548385880101520191019092916100e5565b60ff191660208086019190915291151560051b8401909101915061005590506100a9565b3461006d57602036600319011261006d5760043567ffffffffffffffff811161006d573660238201121561006d57806004013567ffffffffffffffff81116103a45760405191610195601f8301601f1916602001846103b8565b818352366024838301011161006d57815f9260246020930183860137830101525f806040516101c56060826103b8565b602381527f4368616e67696e67206772656574696e672066726f6d202725732720746f202760208201526225732760e81b6040820152610247610267610209610412565b6102596040519384926102356020850197632ced7cef60e01b89526060602487015260848601906104b3565b848103602319016044860152906104b3565b828103602319016064840152886104b3565b03601f1981018352826103b8565b51906a636f6e736f6c652e6c6f675afa50805167ffffffffffffffff81116103a4576102935f546103da565b601f811161033d575b50602091601f82116001146102d7579181925f926102cc575b50505f19600383901b1c191660019190911b175f55005b0151905082806102b5565b601f198216925f80525f5160206104d85f395f51905f52915f5b8581106103255750836001951061030d575b505050811b015f55005b01515f1960f88460031b161c19169055828080610303565b919260206001819286850151815501940192016102f1565b5f8052601f820160051c5f5160206104d85f395f51905f5201906020831061038f575b601f0160051c5f5160206104d85f395f51905f5201905b818110610384575061029c565b5f8155600101610377565b5f5160206104d85f395f51905f529150610360565b634e487b7160e01b5f52604160045260245ffd5b90601f8019910116810190811067ffffffffffffffff8211176103a457604052565b90600182811c92168015610408575b60208310146103f457565b634e487b7160e01b5f52602260045260245ffd5b91607f16916103e9565b604051905f825f5491610424836103da565b8083529260018116908115610494575060011461044a575b610448925003836103b8565b565b505f80805290915f5160206104d85f395f51905f525b8183106104785750509060206104489282010161043c565b6020919350806001915483858901015201910190918492610460565b6020925061044894915060ff191682840152151560051b82010161043c565b805180835260209291819084018484015e5f828201840152601f01601f191601019056fe290decd9548b62a8d60345a988386fc84ba6bc95484008f6362f93160ef3e563a26469706673582212207ac68c0d264239fbf7a7113df73f9f417c3c1b23f43978342a9be6e7756d592064736f6c634300081b0033",
    "sourcePath": "/home/comp/Documents/Testing/contracts/Greeter.sol",
    "compiler": {
        "name": "solc",
        "version": "0.8.27+commit.40a35a09"
    },
    "functionHashes": {
        "greet()": "cfae3217",
        "setGreeting(string)": "a4136862",
        "variable()": "b6854a21"
    },
    "gasEstimates": {
        "creation": {
            "codeDepositCost": "265000",
            "executionCost": "infinite",
            "totalCost": "infinite"
        },
        "external": {
            "greet()": "infinite",
            "setGreeting(string)": "infinite",
            "variable()": "infinite"
        }
    }
}